:020000040800F2
:1000000038A20020CD0300086B670008DF3100082C
:100010006967000891210008BD8900080000000000
:1000200000000000000000000000000015030008B0
:10003000C1250008000000006903000825770008BA
:10004000E7030008E7030008E7030008E7030008E8
:10005000E7030008E7030008E7030008E7030008D8
:10006000E7030008E7030008E7030008E7030008C8
:10007000E7030008E7030008E7030008E7030008B8
:10008000E7030008E7030008E7030008E7030008A8
:10009000E7030008E7030008E7030008E703000898
:1000A000E7030008E7030008E7030008E703000888
:1000B000E7030008E7030008E7030008E703000878
:1000C000E7030008E7030008E7030008E703000868
:1000D000E703000889860008ED8600084D870008C0
:1000E000E7030008E7030008E7030008E703000848
:1000F000E7030008E7030008E7030008E703000838
:10010000E7030008E703000835780008E703000864
:10011000E7030008E7030008E7030008C1780008C8
:10012000E7030008E7030008E7030008E703000807
:10013000E7030008E7030008E7030008E7030008F7
:10014000E7030008E7030008E7030008E7030008E7
:10015000E7030008E7030008E7030008E7030008D7
:10016000E7030008E7030008E7030008E7030008C7
:10017000E7030008E7030008E7030008E7030008B7
:10018000E7030008E703000800F002F800F0B2F807
:100190000AA090E8000C82448344AAF10107DA45E2
:1001A00001D100F0A7F8AFF2090EBAE80F0013F082
:1001B000010F18BFFB1A43F0010318470CD90000C8
:1001C0002CD900000A444FF0000C10F8013B13F04A
:1001D000070408BF10F8014B1D1108BF10F8015BA0
:1001E000641E05D010F8016B641E01F8016BF9D193
:1001F00013F0080F1EBF10F8014BAD1C0C1B09D1EA
:100200006D1E58BF01F801CBFAD505E014F8016B5B
:1002100001F8016B6D1EF9D59142D6D370470000ED
:100220000023002400250026103A28BF78C1FBD8FF
:10023000520728BF30C148BF0B6070476E2900F0DD
:10024000FA83702900F0A78166290BF00F866529D3
:100250000BF00C8667290BF009866129AFF300804B
:1002600003681B0A28BF41F08001692900F018814A
:10027000642900F01581752900F012816F2900F0C2
:10028000F284782900F07381E92900F08D84E42953
:1002900000F08A84F52900F08784EF2900F0EF84CC
:1002A000F82900F072810368DB0928BF41F0800162
:1002B000632900F0FC83732900F00184E32900F036
:1002C000A587F32900F0AA87002070471FB50BF01F
:1002D000C8FD00F0FDFF0400002000210BF014F920
:1002E000401C6060002000210BF0F8F8E0601FBDAA
:1002F00010B510BD00F0BEFF1146FFF7E7FF08F094
:10030000F9FC01F09BF803B4FFF7F2FF03BC08F01F
:10031000CBFB00002A4B19680868B0E8F04F80F367
:100320000988BFF36F8F4FF0000080F3118870478A
:100330000000000006480068006880F3088862B684
:1003400061B6BFF34F8FBFF36F8F00DF00BF00BFF9
:1003500008ED00E0DFF80C00016841F47001016075
:10036000704700BF88ED00E0EFF30980BFF36F8FA7
:10037000134B1A681EF0100F08BF20ED108A20E9F9
:10038000F04F106008B44FF0500080F31188BFF3B5
:100390004F8FBFF36F8F0AF02FF94FF0000080F3FB
:1003A000118808BC19680868B0E8F04F1EF0100FFB
:1003B00008BFB0EC108A80F30988BFF36F8F7047D5
:1003C000B0000020EFF30580704700000948804727
:1003D00009480047FEE7FEE7FEE7FEE7FEE7FEE727
:1003E000FEE7FEE7FEE7FEE704480549054A064B3F
:1003F000704700003977000889010008389C002008
:1004000038A20020389E0020389E0020704700004F
:100410001CB50C46064B7B4469460090204600F014
:1004200024FB04460020694600F032FB20461CBD38
:10043000770600000FB4044910B503AA029800F033
:1004400043FB10BC5DF814FB9C00002070B50C460B
:100450000546012A05D02878800600D5EA690023E0
:1004600002E0012305E05B1C934202D2E05C00281D
:10047000F9D1A869E618C01AA861286A1844286248
:10048000284600F046FA04E0D5E9012114F8010BF2
:100490009047B442F8D3284600F051FA70BD0000EE
:1004A0002DE9F0410646002410687529314616A54D
:1004B00010D000F055FA002802DA404213A507E0F8
:1004C00031688A0701D512A502E0490704D511A5B4
:1004D000012401E000F04DFA00210A2206F1240770
:1004E00009E0B0FBF2FCB0FBF2F302FB1C00303081
:1004F00078541846491C0028F3D123462A46304632
:10050000BDE8F04100F03EBA000000002D00000000
:100510002B00000020000000F0B40D460188090502
:1005200002D5214C7C4402E01F4C7C440E34002157
:1005300000F1240608E002F00F071209E75D42EA25
:1005400003721B097754491C52EA0307F3D102785E
:100550000023120704D5702D06D009B102231134EF
:100560002246F0BC00F00EBA01231034F8E770B553
:1005700004460D462146106800F0FBF90246294664
:100580002046BDE870400023C6E7D21D22F00703D5
:10059000D3E90023C0E70368126843F02003036037
:1005A0000823C3610023B7E704D400002DE9F05FFE
:1005B000894604464FF0000ADFF874B1FB44C0F8E6
:1005C00020A02046E1688847002874D0252806D05E
:1005D000D4E901219047206A401C2062F1E70026FF
:1005E0005F462046E16888472028054607DB312D15
:1005F00005D2781910F8200C08B10643F1E7B007CE
:1006000001D526F00406C4F81CA00027C4F818A0E1
:100610002A2D09D0284608F040FA38B304EB8708A1
:10062000303DC8F8185019E059F8041B204604EB77
:1006300087029161E1688847012F054618D1E0697A
:10064000002820DA26F020061DE0D8F8180000EB7C
:10065000800005EB40003038C8F818002046E168FB
:100660008847054608F019FA0028EED1012F0AD074
:100670002E2D08D12046E16888477F1C0546022FB1
:1006800046F02006C4DBA069002803DA404246F0A9
:100690000106A061F00701D026F010066C2D0BD0EA
:1006A000682D09D04C2D39D06A2D35D0742D35D018
:1006B0007A2D33D016E038E0E1682F46204688478F
:1006C000B842054609D16C2F26D04FF48060E1680E
:1006D000064320468847054604E06C2F1AD04FF4A5
:1006E000807006430DB3A5F14100192802D82035CA
:1006F00046F400664A462946204626604E46FFF7E5
:100700009DFD80B101280BD0F61D26F0070000F1F9
:10071000080956E74020E4E78020D8E70020D6E724
:1007200006F104094DE7284652E7206ABDE8F09F2C
:1007300094D3000030B505460B462A4613F8014B0A
:1007400012F8010B08B1A042F8D01CB1002802D069
:100750006D1CF1E7284630BD10B5431C02E010F8CF
:10076000011B71B18107FAD14FF0013202C88C1A16
:100770008C4314EAC211F9D0C01A0A0603D0C01E75
:1007800010BDC01A10BD0A0401D0801E10BD0902A0
:10079000FCD0401E10BD032A40F2308010F0030C44
:1007A00000F0158011F8013BBCF1020F624498BFC4
:1007B00011F801CB00F8013B38BF11F8013BA2F161
:1007C000040298BF00F801CB38BF00F8013B11F0DC
:1007D000030300F05F82083AC0F0088051F8043B40
:1007E000083A51F804CBA0E80810F5E7121D5CBFE9
:1007F00051F8043B40F8043BAFF30080D20724BF1C
:1008000011F8013B11F801CB48BF11F8012B24BFAF
:1008100000F8013B00F801CB48BF00F8012B7047FE
:1008200002F0FF0343EA032242EA024200F002B868
:100830004FF000020429C0F0128010F0030C00F009
:100840005D82CCF1040CBCF1020F18BF00F8012B43
:10085000A8BF20F8022BA1EB0C0100F04FBA5FEA11
:10086000C17C24BF00F8012B00F8012B48BF00F821
:10087000012B70474FF0013C50F8042B51F8043B1A
:100880009A4221D1A2EB0C03934313EACC1317D164
:1008900050F8042B51F8043B9A4215D1A2EB0C03FB
:1008A000934313EACC130BD150F8042B51F8043BBB
:1008B0009A4209D1A2EB0C03934313EACC13DBD089
:1008C0004FF00000704700BFD01A01BAB1FA81F1B1
:1008D00001F0180122FA01F0CB40C1F12001DBB296
:1008E000C0B2C01A2CFA01F3D11A914311EAC31114
:1008F000E6D17047704770477047704710B500F0F9
:1009000023FA006810BD10B5044600F01DFA04601B
:1009100010BD70B5044685690068C10601D5302652
:1009200000E02026C00707D070BDD4E90121304681
:100930009047206A401C20626D1EF6D570BD70B5D0
:10094000044685690078C00707D170BDD4E901214C
:1009500020209047206A401C20626D1EF6D570BD95
:1009600009684A0501D540B27047C905FCD500B2F7
:10097000704709684A0501D5C0B27047C905FCD562
:1009800080B270472DE9F0470D46994692460446DD
:1009900000F124080168880604D5E06921F01001FF
:1009A000216000E00120A84201DD471B00E0002794
:1009B000A1697A1902EB0900081AA0612078C00623
:1009C00002D42046FFF7A5FF002608E0D4E9012164
:1009D0001AF806009047206A401C761C20624E459B
:1009E000F4DB2078C0060AD52046FFF792FF06E028
:1009F000D4E9012130209047206A401C2062381E33
:100A0000A7F10107F4DC07E0D4E9012118F805009B
:100A10009047206A401C2062281EA5F10105F3DCE6
:100A20002046FFF78CFF2078000602D50220BDE8A3
:100A3000F0870120FBE711680268006A530501D5C1
:100A400008700AE0D30501D5088006E0130603D537
:100A5000C217C1E9000200E00860012070470000F1
:100A600001694A1C02610878704700B58FB0CDE972
:100A700001310021059105497944CDE90310114662
:100A80006846FFF793FD0FB000BD0000E5FFFFFFD4
:100A90000A6802F8010B0A60704710B5436913B188
:100AA000AFF3008001E0FFF7D1FC012010BD127808
:100AB00000F124010A7000224A700122EDE711685A
:100AC0004FF0FF32E9E70000074B70B50D467B445D
:100AD000FFF7CBFF0446284600F0A4FB10B14FF00F
:100AE000FF3070BD204670BD0F8200002DE9FF5F12
:100AF00015468A460446DFF8AC80F8440027D8E95A
:100B000000103E46CDE9001010E03AF816106A4693
:100B100002A800F08BFB411C07D02178890603D581
:100B2000E269391891420DD80744761C2078800676
:100B300002D5E069B84205DDAE42E6DB3AF81600C0
:100B40000028E2D1A069C01BA0612046FFF7E1FEAA
:100B5000D8E90010CDE90010002017E03AF818108D
:100B60006A4602A800F062FBB0F1FF3F81460BD05D
:100B700000250DF1080B05E0D4E901211BF8050063
:100B800090476D1C4D45F7D308F10100B0428046F7
:100B9000E4DB206A384420622046FFF7D0FEBDE83F
:100BA000FF9F00006ACE00002DE9F0418046D21D73
:100BB00022F007020025D2E90002F52915A614D07B
:100BC000011E72F1000106DA0023D0EB030063EB93
:100BD000020211A608E0D8F800108B0701D50FA675
:100BE00002E0490701D50EA601251146002408F1AF
:100BF000240704E000F0ACF830323A55641C50EAA7
:100C00000102F7D12B46324621464046BDE8F0416D
:100C1000FFF7B8BE000000002D0000002B00000010
:100C20002000000030B4002100F1240408E002F0AC
:100C30000705D208303542EA4372DB086554491C87
:100C400052EA0305F3D10468002310A2250707D553
:100C5000A40600D421B1C46901230DA2641EC4619D
:100C600030BCFFF78FBE10B5044621461068FFF771
:100C700080FE02462046BDE810400023D2E7D21D88
:100C800022F00701D1E90023CCE7000000000000BA
:100C90003000000010B5203AC0F00B80B1E81850C9
:100CA000203AA0E81850B1E81850A0E81850BFF456
:100CB000F5AF5FEA027C24BFB1E81850A0E81850F5
:100CC00044BF18C918C0BDE810405FEA827C24BF49
:100CD00051F8043B40F8043B08BF7047D20728BFD7
:100CE00031F8023B48BF11F8012B28BF20F8023B26
:100CF00048BF00F8012B70474FF0000200B51346C3
:100D000094469646203922BFA0E80C50A0E80C502B
:100D1000B1F12001BFF4F7AF090728BFA0E80C50DC
:100D200048BF0CC05DF804EB890028BF40F8042BD5
:100D300008BF704748BF20F8022B11F0804F18BF42
:100D400000F8012B7047000000487047D89B002036
:100D500030B5B0F10A024FEA900E71F100034EEA8D
:100D6000817EB0EB0E0061EB91014FEA101E4EEA5E
:100D7000017E10EB0E0041EB11114FEA102E4EEAEE
:100D8000016E10EB0E0041EB11214FEA104E4EEABE
:100D9000014E10EB0E0041EB1141401841F10001F2
:100DA0004FEAD00040EA41704FEAD10110EB8005D4
:100DB0004FEA810444EA907444EB01046D1944EB5A
:100DC0000404521BA3414FF0000348BF0A3200D570
:100DD00030BD401C41F1000130BD70472DE9FF4F8F
:100DE0000C461E464FF0FF378BB0D2E90001DDF80C
:100DF00060800A908A46C1F30A5505B93D46002134
:100E000008464FF00000BAF1000F00F4400005DA88
:100E100000EB80004FF4400101EA50004FEA905986
:100E2000B9F1010F00DDB9460A9850EA4A000ED028
:100E300044F61050A5F2FF3545432F14B8F1000FCA
:100E40001ED07542291E1EDDC9F100021CE0B8F15A
:100E5000010F4FF0000001D0302103E0F24305E024
:100E60002154401CB042FBDB3046002200212154BB
:100E70000B99C1F80880C1E900200FB0BDE8F08FE0
:100E8000BD1B6D1CDEE74A4600DA694206A800F089
:100E900063FA06AB93E8070003AB83E8070050460C
:100EA0000A9900F0D4FA8DE80700A0F500501F3829
:100EB00000900398002D0ADD42F21F014A460844C3
:100EC000002303A90390684600F03DFD09E0A0F56A
:100ED00000504A461F38002303A90390684600F0DB
:100EE00047FD8DE807000004000C03D04FF0FF30F1
:100EF000410800E01046B8F1000F03D00022009234
:100F000015461EE0751E05D4FFF722FF30326255EC
:100F10006D1EF9D5B3460122084302D000227F1C82
:100F200004E02078302801D100227F1E002A099792
:100F300084D01DE0112D07DAFFF70AFF3032625529
:100F40006D1C50EA0102F5D1084302D00098C8B1E7
:100F50000EE00021681E05E0235C625C63542254AD
:100F6000401E491C8142F7DBAB46A81B401E09907E
:100F7000002004F80B000B98099AC0F80880C0E91B
:100F8000002B7AE711264FF0000857E72DE9F04FC4
:100F900088460446D21D22F0070191B0D1E9000134
:100FA000CDE90A0107F024FD02460B98C00F01D0DD
:100FB0002D2007E02068810701D52B2002E02021A9
:100FC00001EAC000032A099001D0072A05DB034685
:100FD0004146204600F080F90BE12078800601D5DB
:100FE000E06900E00620B8F1650F814606D0B8F14F
:100FF000660F18D0B8F1670F70D131E00020B9F159
:10100000110F009001DB112301E009F101030AAA8D
:1010100001A90CA8FFF7E2FEDDE90C70002609F13A
:101020000105834647E001204B4600904FF0004702
:101030000AAA01A90CA8FFF7D1FEDDE90DB00C99B1
:101040005D46002610B909F101000D18B9EB050045
:1010500003D4C0F1FF3609F10105A5EB09002BE02F
:10106000B9F1010F01DA4FF001090020B9F1110FB8
:101070000090484601DD112300E003460AAA01A9B9
:101080000CA8FFF7ABFEDDE90C704D460026834649
:10109000207800070AD4AB4500DA5D4601A8012D8F
:1010A00004DD411911F8011C302907D04F4502DA3F
:1010B00017F1040F04DA012082460FE06D1EEEE7FF
:1010C000002F02DCED1B3E4403E0781CA84200DD4B
:1010D0007D1CB81B00F1010A4FF000472078000783
:1010E00003D4AA4501DB4FF0FF3A0021B7F1004FCE
:1010F0000DF143088DF8431024D002202B23002F3C
:1011000001DA7F422D230A21021EA0F1010000DC3A
:101110005FB197FBF1FC97FBF1F201FB1C7C1746DA
:101120000CF1300C08F801CDEEE7A8F101000370D6
:101130002188090501D5452100E06521A0F10108BC
:1011400000F8011C09980FA9A1EB0807FF1D00B1C9
:101150000120411901EBEA70A1693844081A401EC8
:10116000A0612078C00602D42046FFF7D2FB099880
:1011700028B1D4E901219047206A401C20622078E0
:10118000C00622D52046FFF7C4FB1EE0002E04DB7C
:10119000B34502DD01A8805D00E03020D4E90121E3
:1011A0009047206A401C2062761CAAF101005FEA89
:1011B000000A0AD100F08CF8C0680168405CD4E9EC
:1011C00001219047206A401C2062281EA5F10105DC
:1011D000DCDC07E0D4E9012118F8010B9047206A14
:1011E000401C2062381EA7F10107F3DC2046FFF700
:1011F000A6FB032011B041E610B5436913B1AFF36C
:10120000008001E0FFF772FC012010BD128800F1A0
:10121000240182840022C2840122EDE711684FF08C
:10122000FF32E9E7007B00F08000704770B516469A
:101230000C46054600F044F8036893F801010128C4
:1012400006D0FF2C0FD8185D68B101202C7070BD3E
:10125000D3F807013246214603F207130344284618
:10126000BDE8704018474FF0FF3070BD0048704730
:10127000D89B00207546FFF7F9FFAE46050069468A
:10128000534620F00700854618B020B5FFF7ACF8AC
:10129000BDE820404FF000064FF000074FF0000877
:1012A0004FF0000B21F00701AC46ACE8C009ACE8F8
:1012B000C009ACE8C009ACE8C0098D467047000021
:1012C00010B500F005F8001D10BD00BF3DA20000E4
:1012D00000487047F89B00202DE9F0411F46044666
:1012E00003260168072A01F4006004DB08B116A593
:1012F00005E016A503E008B115A500E015A521F04D
:1013000010002060A069C01EA0610FB1401EA06146
:101310002046FFF7FEFA4FB1D4E901213846904745
:10132000206A401C2062C01C206206E0206AFAE7A6
:10133000D4E9012115F8010B9047761EF8D220461A
:10134000FFF7FDFABDE8F0814E414E006E616E0080
:10135000494E4600696E66002DE9F0478146164603
:101360008AB0354878440DC88DE80D00324878447D
:10137000801C03AC0DC884E80D0041F69B30084486
:10138000372190FBF1F290FBF1F5A5F1800501FB0F
:1013900012041B3C02D56442012000E00020DFF86B
:1013A00098A080460027FA44AAF1BE0A0EE0E007A2
:1013B0000AD03246684607EB470101230AEB810158
:1013C00000F0D6FA8DE8070064107F1C002CEED1E7
:1013D000194F7F44AE3F19E0E80715D007EB041022
:1013E0000DF1180A90E80E008AE80E00C068F0427D
:1013F00001D1981908903246012306A903A800F0EC
:10140000B7FA03AB83E807006D10641C002DE3D12D
:101410004FF0010332466946B8F1000F03A802D02D
:1014200000F091FA01E000F0A3FAC9E90001C9F85F
:1014300008200AB0BDE8F08784C6000010B5044655
:10144000AFF300802046BDE81040FEF75CBF5FEAC6
:10145000400C08BF91F0000F4FEA8C234FEAC122E5
:1014600043EA51514FEA1C5018BF00F5F0404FEAD3
:10147000300018BF41F000415FEA6C5C00F0298049
:10148000BCF1FF3F08BF40F080407047130C06BF1F
:1014900012044FF0100C4FF0000C130E04BF120298
:1014A0000CF1080C130F04BF12010CF1040C930F84
:1014B00004BF92000CF1020CD30F04BF52000CF1D8
:1014C000010C11464FF00002A0F11F00A0EB0C0030
:1014D000704711F0004F08BF704731F000413FF4F2
:1014E000D5AF0B0C06BF09044FF0100C4FF0000CE9
:1014F0000B0E04BF09020CF1080C0B0F04BF09010D
:101500000CF1040C8B0F04BF89000CF1020CCB0F03
:1015100004BF49000CF1010CCCF12003A0EB0C003E
:1015200022FA03F302FA0CF241EA030100F101008E
:10153000704720F07F4C80EA030023F07F47ACEB3C
:10154000070303F57C5300F0004003F1FF032DE98E
:1015500080494FEA154B09B44FEA144325EA0B4E74
:1015600024EA03480FF2042606EB132749083E78C5
:101570005FEA320203FB0667C7F5000707FB06F6C2
:101580004FEA54374FEAD64606F1020607FB066CCF
:10159000CCF1005C4FEA1C472CEA074C07FB06F431
:1015A0000CFB06F504EB15464FEA961634BF0020F7
:1015B0004FF000404FEAD13706FB07FC4FEA1C4CC6
:1015C0000CFB0BF7D21B03FB0CF761EB07010CFBC9
:1015D0000EF7B0EB074072EB17420CFB08F734BF75
:1015E000A2EB0742B2EB074261EB17414FEA0C4412
:1015F0004FEA910706FB07FC4FEA1C4C0CFB0BF76C
:10160000B0EBC74072EB573203FB0CF734BFA2EBD1
:10161000C742B2EBC74261EB57310CFB0EF7B0EBA0
:10162000C70072EB57720CFB08F734BFA2EBC7027E
:10163000B2EBC70261EB5771039F4FEA816141EA48
:10164000921104EBCC044FEAD1374FEA826206FBD9
:1016500007FC42EA90124FEA80604FEA1C4C0CFBF8
:101660000BF7D21B03FB0CF761EB07010CFB0EF72A
:10167000B0EB074072EB17420CFB08F734BFA2EB4C
:101680000742B2EB074261EB17414FEA8C554FEA34
:10169000910704EB9C2406FB07FC4FEA1C4C0CFB57
:1016A0000BF7B0EBC74072EB573203FB0CF734BFBC
:1016B000A2EBC742B2EBC74261EB57310CFB0EF70E
:1016C000B0EBC70072EB57720CFB08F734BFA2EB0C
:1016D000C702B2EBC70261EB577115EB4C254FEA1D
:1016E000816141EA92114FEA82624FEAD13742EAC0
:1016F000901206FB07FC44F100044FEA80604FEAB9
:101700001C4C0CFB0BF7D21B03FB0CF761EB070126
:101710000CFB0EF7B0EB074072EB17420CFB08F71F
:1017200034BFA2EB0742B2EB074261EB174115EB66
:101730001C154FEA813141EA92414FEA823242EA76
:1017400090424FEA80304FEA0C7644F1000448EAB8
:1017500003434EEA0B484FF0000EB2EB080C71EB5E
:10176000030724BF624639464EEB0E0E4FF0000BC6
:101770000018524149414BEB0B0BB2EB080C71EBDB
:1017800003077BF1000B24BF624639464EEB0E0E79
:101790004FF0000B0018524149414BEB0B0BB2EBE1
:1017A000080C71EB03077BF1000B24BF624639463E
:1017B0004EEB0E0E51EA020718BF46F0010616EB7B
:1017C0000E7655F1000254F1000103D5BDE8890100
:1017D000BDE80088BDE88901BDE80048B61952415E
:1017E00041EB0101A3F10103704780807F7E7D7C86
:1017F0007B7A7978777676757473727171706F6EA3
:101800006E6D6C6C6B6A6A6968686766666564644D
:10181000636362616160605F5F5E5E5D5D5C5C5BD7
:101820005B5A5A5959585857575656555555545446
:10183000535352525251515050504F4F4F4E4E4DA4
:101840004D4D4C4C4C4B4B4B4A4A4A4949494848F0
:101850004847474747464646454545444444444330
:1018600043434342424242414141002B9C4630D4D3
:1018700077002BD01CB54FEA370703B44FF01000A8
:101880004FF01001BAF1000F06D0BCF1000FDCBF21
:1018900040F0080040F008014FF000000FBCBDE828
:1018A00010400BF1010BBBF1010F08BF5FEA1707F6
:1018B00022BF12F1010211F101014FF0004143F189
:1018C000000300F0004043EA00007047F9D35708D6
:1018D000D0E746EA064613F1400F4FEA16461FDDF1
:1018E00013F1200FDFBF16430A46002120335B426D
:1018F000BED0C3F1200746EA064602FA07F74FEAD0
:10190000164646EA0706C3F1200722FA03F201FA57
:1019100007F721FA03F14FF0000342EA0702A7E7B5
:1019200046EA020646EA06464FEA164646EA010637
:10193000BCBF46EA0646360C4FF000034FF00002EB
:101940004FF0000194E72DE9804C9A46934670B41D
:1019500091E8380007C831EA400C48BF34EA430C2C
:1019600003D5FFF7E6FDFFF780FFF0BCBDE8008C74
:101970002DE9804C9A46934670B491E8380007C828
:1019800010F0804F08BF13F0804F03D100F005F82E
:10199000FFF76BFFF0BCBDE8008C20F07F4780EACA
:1019A000030023F07F4C07EB0C03A3F57C5300F0FE
:1019B0000040A3F1FE0392F0000F00F0B38095F019
:1019C000000F00F077802DE901494FEA11404FEAFE
:1019D000144621EA004800FB06FC24EA064708FBFF
:1019E00006F607FB08F800FB07F718EB06484CEB78
:1019F000164C4FEA124B18EB07484FEA15464CEBD2
:101A0000174022EA0B4E0BFB06FC25EA06470EFBAD
:101A100006F607FB0EFE0BFB07F71EEB064E4CEB24
:101A2000164C4FF000061EEB074E4CEB174B18EB15
:101A30000B0840F1000018EB0E0B58EB000840F1CA
:101A400000008F1A4FF000013CBFC943661B14BF52
:101A5000B5EB040C00213CBFC943F61B4FEA174409
:101A60004EEA8E0E27EA04454FEA1C4704FB076244
:101A70002CEA074C05FB07F70CFB05F604FB0CFCF6
:101A800016EB074642EB174216EB0C4642EB1C42A4
:101A90001BEB060658EB0202414146EA9E0601D5C1
:101AA000BDE80189B619524141EB0101A3F10103DF
:101AB000BDE801894FEA14454FEA114724EA05467B
:101AC00021EA074C05FB07F406FB07F70CFB06F1C0
:101AD00005FB0CFC11EB074144EB17444FEA12479E
:101AE00011EB0C4144EB1C4422EA074C05FB07F2C6
:101AF00006FB07F70CFB06F605FB0CFC16EB07468E
:101B000042EB174216EB0C4642EB1C456A1854F1A7
:101B1000000148BF7047B619524141EB0101A3F1E2
:101B20000103704795F0000F37D04FEA11424FEA9A
:101B3000144721EA024624EA074C02FB07F106FBA0
:101B400007F70CFB06F402FB0CFC14EB074441EB1B
:101B500017414FEA154714EB0C4441EB1C4125EAB1
:101B6000074C02FB07F506FB07F70CFB06F602FB2A
:101B70000CFC16EB074645EB174516EB0C4645EB00
:101B80001C42121951F1000148BF7047B619524169
:101B900041EB0101A3F1010370474FEA14454FEAFD
:101BA000114724EA054621EA074C05FB07F106FB2D
:101BB00007F70CFB06F24FF0000605FB0CFC12EBDE
:101BC000074241EB174112EB0C4251EB1C4148BF5D
:101BD0007047921841EB0101A3F101037047000027
:101BE00070B513A0FEF726FC4FF4C87465000BE037
:101BF000204606F077FF14A0FEF71CFC284606F0EE
:101C000071FF16A0FEF716FC194804F095FF002896
:101C1000EED118A0FEF70EFC1548801E05F090F8D6
:101C2000134C241F2070174804F0FEFF207070BD75
:101C30000D0AD3EB4153363038C4A3BFE9CED5CA21
:101C4000D62E2E2E2E0D0A000D0ACEB4BCECB2E21A
:101C5000B5BDC4A3BFE92121210D0A000D0AB3A21D
:101C6000CAD4C1ACBDD3C4A3BFE92E2E2E0D0A0029
:101C7000900000200D0ACDA8D1B6B3C9B9A6212184
:101C8000210D0A00980400202DE9F05F2E4E8A46AF
:101C90000546002471682046884796F82000DFF842
:101CA000ACB0000640D5B3890022B146C2EB0216A3
:101CB0000AEB4608B9F81600002108F11E0C01EBEA
:101CC000810605EB061606F15007BB420BD2B34264
:101CD00009D9604507D2404505D902EB42000844C6
:101CE000401CC4B203E0491C89B20329E7D3B4B154
:101CF0009BF800005E46A04201D1002421E0401E76
:101D0000C2B200235146284600F022F8601EC2B23B
:101D1000347001235146284600F01AF811E0521C95
:101D200092B2052AC2D30CE09BF800005E4640B197
:101D3000401EC2B200235146284600F009F8002098
:101D400030702046BDE8F09F2C010020700000207C
:101D50002DE9F843804603200F46B2FBF0F1B2FBB9
:101D6000F0F6144600FB1145102A34D823B1012C9B
:101D700031D04FF4FC6003E0012C2CD04FF6FF7003
:101D80000090C6EB061007EB400000F11C018BB27F
:101D900005EB850208EB021101F14E02401C1FFA0F
:101DA00080FC491C88B292B2614601F0B5FD50201A
:101DB00000900A4805EB8503806850F82420C6EBA4
:101DC000061007EB4000C01D81B208EB031080B283
:101DD000102305F06FFCBDE8F883000070000020C0
:101DE0002DE9FE4F0D46DFF810814FF4784107468C
:101DF000A8F80210C8F808204FF6FF7005F1960603
:101E000007F1F0040090B3B2A2B22946384601F0BF
:101E100083FDB3B2A2B22946384601F0A1FC07F116
:101E2000A00082B25038B3B280B2294601F098FCCB
:101E300005F13C0083B21E3881B2A2B2384601F0EF
:101E40008FFC05F1780083B21E3881B2A2B2384609
:101E500001F086FC1F210024A8F802100320C146CF
:101E6000804601E0012C27D04046B4FBF0F1B4FBE2
:101E7000F8F208FB124050220092C1EB0111D9F890
:101E8000082005EB410100EB8000C91D07EB0010A5
:101E900089B280B24E4652F82420102305F00AFC85
:101EA000B1464FF0000A4FF0100B4646641CA4B236
:101EB0000F2CD7D3BDE8FE8FB4FBF6F0C0EB0010BB
:101EC00005EB4000C01D81B2B4FBF6F0D9F808C0A4
:101ED00006FB1040DCF804C000EB800007EB0010AC
:101EE000CDE900CB801C80B21E235022CDF808A083
:101EF00005F096FBDAE70000700000201CB5DFF863
:101F000024810025484C494F0126D8F818020028A2
:101F100006D006F0AFFF012803D006F0ABFFC8B330
:101F20007BE0C4F8A062642006F012FEC4F8A05260
:101F30001023002219211E20009500F0EFFA102333
:101F4000022219213220009500F0E8FA1023042221
:101F500019214620009500F0E1FA102306221921EC
:101F60005A20009500F0DAFA1023082219216E2079
:101F7000009500F0D3FA10230A221921822000953F
:101F800000F0CCFA0421F86908F082FB28A0FEF7E3
:101F900051FA42E0FFE7C4F8A062322004F5287449
:101FA00006F0D6FD2560322006F0D2FD26603220F4
:101FB00006F0CEFD2560322006F0CAFD26603220F4
:101FC00006F0C6FD256010230C2219216E20A4F511
:101FD0002874009500F0A2FA10230E221921822005
:101FE000009500F09BFA16A0FEF724FA3878401C02
:101FF000C0B23870032810D1B86808F08DFA14A068
:10200000FEF718FA102016A1CDE9000103464FF49F
:1020100082726421002004F05CFA642008F09AF8CF
:1020200073E70000000040420080424200000020B0
:10203000D6B8CEC6CAB6B1F0B3C9B9A60000000082
:10204000D6B8CEC6CAB6B1F0CAA7B0DC0000000050
:10205000B6E6BBFAC8CECEF1B9D2C6F00D0A000082
:102060005461736B20686173206265656E207375BF
:102070007370656E6465640001F0D2B82DE9F041BB
:102080000D460146002004464E1908E00702301BA9
:10209000401E80B200F007F8641C3844E4B2AC4241
:1020A000F4D3BDE8F08110B5044601F05FF9200AD1
:1020B000A02101EB4000C0B201F028F901F098F92D
:1020C000E0B201F023F901F093F901F04FF9A120FA
:1020D00001F01CF901F08CF9002001F0E3F804464E
:1020E00001F064F9204610BD2DE9F04116460D4679
:1020F0000746002409E0E00025FA00F0C1B23819D3
:1021000080B200F006F8641CE4B2B442F3D3BDE838
:10211000F08170B50D46044601F028F9200AA0218F
:1021200001EB4000C0B201F0F1F801F061F9E0B25A
:1021300001F0ECF801F05CF9284601F0E7F801F055
:1021400057F901F033F9BDE870400A2006F0CABC27
:102150007CB50121202004F0ADFF01208DF80400A2
:1021600000208DF8060003208DF805000220074DA1
:102170004FF480748DF8070000946946284600F0FB
:102180000BFE2146284600F05AFE7CBD001402409A
:10219000FEE7000070B50F4C0025C4F880520E48D1
:1021A000016821F440010160016841F4800101608F
:1021B000022004F5207406F0B1FC0848C0F8AC52C7
:1021C000022006F0ABFC01202060022006F0A6FCF5
:1021D000256070BD008040420014024000804242F1
:1021E0001CB50121222004F065FF01248DF8044074
:1021F00000208DF8060000948DF8074069460648D7
:1022000000F0CAFDE00200908DF8044069460348E2
:1022100000F0C2FD1CBD000000040240001402409A
:1022200070B50F4C0026C4F880620E48016821F496
:1022300040010160016841F480010160022004F561
:10224000207406F06BFC08480125C0F8AC5202204F
:1022500006F064FC2560022006F060FC266070BD7C
:102260000080404200140240008042422DE9F047C5
:10227000824617480024016821F44001016001688A
:1022800001601E2006F04AFC0025124EDFF848903F
:102290002F464FF00108C6F88072022006F03EFC7F
:1022A000C6F880826006040ED9F82C0208B1641CBE
:1022B000E4B26D1CEDB2082DEDD3BAF1000F04D0DD
:1022C000FFF768FF2046BDE8F087FFF7A9FFF9E7B1
:1022D0000014024000804042008042422DE9F04755
:1022E00005461548016821F440010160016841F488
:1022F00080010160114E0027C6F88072022006F0AE
:102300000DFCDFF83C8000244FF00109E909C8F812
:10231000AC126806050EC6F88092022006F0FEFB9D
:10232000C6F88072022006F0F9FB641CE4B2082CA7
:10233000ECD3BDE8F087000000140240008040426A
:102340000080424270B50F48016821F440010160ED
:10235000016841F4800101600B4E0120C6F8AC0217
:102360000A4DC5F880021E2005F5207506F52B766E
:1023700006F0D4FB00243460022006F0CFFB2C6072
:1023800070BD0000001402400080424200804042C4
:1023900070B50D48016821F440010160016841F405
:1023A0008001016009480125C0F880521E2006F016
:1023B000B5FB074C0020C4F8AC02022004F52B74D6
:1023C00006F0ACFB256070BD001402400080404266
:1023D0000080424270B511480024016821F4400198
:1023E0000160016801600E4D0120C5F8AC020D4E80
:1023F000C6F8800207E0641CE4B2FA2C03D9FFF7A8
:10240000C7FF012070BD022006F088FBD5F82C0222
:102410000028F0D1C6F8800270BD00000014024010
:1024200000804242008040422DE9F0410E460746BE
:1024300015460421052000F0B7F80021012006F020
:10244000BFFA80210A2005F085F8002405E0395DF7
:10245000092006F0B5FA641CE4B2B442F7D30321B4
:10246000012006F0ADFAFF24052004F063FF641E8E
:1024700014F0FF0401D04007F6D5222004F05AFFE3
:102480002870212004F056FF6870BDE8F08100003C
:102490002DE9FF4F834681B098460C468946580780
:1024A00000D0012000EBD80111FB08F0C0B20027DA
:1024B000DFF860A0009027E0B8F1100F27D116498F
:1024C0000398002501EB0010C65D300602D5BAF86E
:1024D000022001E0BAF804202146584601F0B4F980
:1024E000641C7006E4B2060EA4EB0901414505D157
:1024F0000BF101004C4600F0FF0B03E06D1CEDB248
:10250000082DE2D37F1CFFB200988742D4D305B0D8
:10251000BDE8F08F7000002030D600082DE9FF4F95
:10252000834681B098460C468946580700D0012062
:1025300000EBD80111FB08F0C0B20027DFF860A063
:10254000009027E0B8F1100F27D116490398002515
:1025500001EB0010C65D300602D5BAF8022001E09A
:10256000BAF804202146584601F06EF9641C700642
:10257000E4B2060EA4EB0901414505D10BF10100BF
:102580004C4600F0FF0B03E06D1CEDB2082DE2D3CA
:102590007F1CFFB200988742D4D305B0BDE8F08F0E
:1025A00070000020F0D6000870B50C46054604F017
:1025B000C1FE20EA04012846BDE8704006F000BADA
:1025C000704700000127194DDFF86480194C4FF463
:1025D000C8790026208820B317A11848FEF7AAF86A
:1025E00090B1C5F8A072642006F0B2FAC5F8A062F6
:1025F00013A0FDF71FFF0121D8F81C0008F048F8D0
:1026000049460E48FEF714F90BA10C48FEF792F864
:1026100030B90EA0FDF70EFF49460848FEF708F94D
:102620002680642007F096FDD4E700000080424237
:1026300000000020600100206F6E0000489A00201A
:10264000BFAAC3C5B3C9B9A60D0A0000C3DCC2EB5B
:10265000B4EDCEF30D0A000021283CD2DFE800F0F3
:1026600011131517191B1D1F212325273B3B3B3B2E
:1026700027293B3B3B2B3B3B2D2F3133353B3B3716
:10268000390016A0704716A0704719A070471DA00A
:10269000704721A0704728A070472FA0704735A031
:1026A000704742A0704744A0704747A070474AA0B7
:1026B00070474DA0704750A0704758A070475BA06E
:1026C00070475DA0704760A0704764A0704768A025
:1026D00070476AA070476CA0704700004F4B000025
:1026E000CAFDBEDDB0FCBDD3CAD5B4EDCEF300004B
:1026F000B4ABB8D0C6F7C9CFC3BBD3D0CAD6D6B84F
:1027000000000000C2BCC8EBD6B8CEC6CDBCCFF12D
:10271000CAA7B0DC00000000D6B8CEC6CDBCCFF151
:10272000CCABB8C9A1A2CCABB5ADB6F8C9FAB2BBB7
:10273000B3C9CCD8D5F70000D6B8CEC6CDBCCFF142
:10274000CCABCAAAA1A2CCABBAFDB6F8C9FAB2BB4F
:10275000B3C9CCD8D5F70000D6B8CEC6CDBCCFF122
:10276000CCABC2D2B6F8C9FAB2BBB3C9CCD8D5F794
:1027700000000000D6B8CEC6CDBCCFF1D5FDB3A3C6
:10278000A3ACB5ABCCD8D5F7B5E3CCABC9D9A3A82E
:10279000BBF2C3E6BBFDCCABD0A1A3A9B6F8C9FA86
:1027A000B2BBB3C9CCD8D5F700000000D6B8CEC6AE
:1027B000B2BBC6A5C5E40000C3BBCBD1CBF7B5BD4A
:1027C000D6B8CEC600000000CCD8D5F7BACFB2A29A
:1027D000CAA7B0DC00000000C9BEB3FDC4A3B0E5C9
:1027E000CAA7B0DC00000000C7E5BFD5D6B8CEC68A
:1027F000BFE2CAA7B0DC0000BBBAB3E5C7F8C4DAD1
:10280000C3BBD3D0D3D0D0A7D4ADCABCCDBCB6F84F
:10281000C9FAB2BBB3C9CDBCCFF10000B6C1D0B4C8
:1028200020464C41534820B3F6B4ED00CEB4B6A8D0
:10283000D2E5B4EDCEF30000CEDED0A7BCC4B4E642
:10284000C6F7BAC500000000BCC4B4E6C6F7C9E8C4
:10285000B6A8C4DAC8DDB4EDCEF30000BCC7CAC266
:10286000B1BED2B3C2EBD6B8B6A8B4EDCEF3000079
:10287000D6B8CEC6BFE2C2FA00000000B5D8D6B7BF
:10288000B4EDCEF300000000C4A3BFE9B7B5BBD8D8
:10289000C8B7C8CFC2EBD3D0CEF300008000A0F100
:1028A000C0400029016802D041F0010101E0024A64
:1028B0001140016070470000FEFF0F0010B5D0E925
:1028C00001121143D0E903231A4311434269114312
:1028D00082691143C2691143026A1143426A11437A
:1028E000826A1143C26A1143026B1143026892006B
:1028F000A2F1C04211608168082907D101688900EE
:10290000A1F1C0410A6842F040020A60416BD1E97E
:10291000002342EA03128B688C891B0243EA0443BA
:102920001A430B8A42EA03520B7D896942EA036229
:102930000A4301688900A1F1C0414A60C16AB1F54A
:10294000804F08D000686FF070418000A0F1C04057
:10295000C0F8041110BD816BD1E9002342EA0312D3
:102960008B680C8A1B0243EA04531A430B7D896966
:1029700042EA036200680A438000A0F1C040C0F848
:10298000042110BDFEB50121062004F093FB0220B6
:10299000002401908DF808408DF80A4003208DF83E
:1029A000090001258DF80B5001A9254800F0F4F924
:1029B000680301908DF8085001A9224800F0ECF955
:1029C000FFF70EFC204EC6F8B442142006F52D7613
:1029D00006F088F83560322006F084F88DF8004063
:1029E00001226946002000F0FDF801226946A4207A
:1029F00000F0F8F816208DF80000012269468020CA
:102A000000F0F0F80C208DF80000012269468820C3
:102A100000F0E8F802226946A12000F01DF89DF8B8
:102A20000000302803D19DF80100032801D00120C7
:102A3000FEBD43F2030105A0FDF7FCFC0020FEBD36
:102A4000000402400008024000004142435450206C
:102A500049443A25780D0A002DE9F04115460F4604
:102A60000446FFF76FFC7020FFF738FCFFF7B2FC5D
:102A7000E0B2FFF733FCFFF7ADFCFFF763FC71201A
:102A8000FFF72CFCFFF7A6FC00246E1E09E0B44201
:102A900001D0012000E00020FFF7E8FB3855641C5E
:102AA000E4B2AC42F3D3BDE8F041FFF771BC0000E3
:102AB0002DE9F143484F00244FF00A09387882B0DD
:102AC000401CC0B2B0FBF9F209FB1201434DA04615
:102AD000387009B10A2863D2012202A90220FFF747
:102AE000BBFF9DF8080001075AD000F00F00062830
:102AF00056D2FF218140C84340F0C00085F8200035
:102B00004FF00108002695F8201008FA04F0014261
:102B100039D033480422694630F81400FFF79CFF8F
:102B200095F830009DF80010C0079DF8010001F0F5
:102B30000F010ED000EB012105EB4400C1829DF88E
:102B400002209DF8031002F00F0201EB02218181A7
:102B50000FE000EB0120C0F5F07105EB440081812E
:102B60009DF802209DF8031002F00F0201EB0221F4
:102B7000C1829DF800000821B1EB101F03D005EBC6
:102B80004400C6828681641CE4B2052CBBD3A989AB
:102B90004FF0010819B9E88A08B98DF808603E704D
:102BA0009DF80800C0060ED195F82000010602D558
:102BB00020F0800005E04FF6FF71A981E98200F066
:102BC000E00085F820003878F02801D987F80090D7
:102BD0004046BDE8FE830000240100202C010020B7
:102BE00050D800082DE9F04115460E46044600274E
:102BF000FFF7A8FB7020FFF771FBFFF7EBFBE0B2DC
:102C0000FFF76CFBFFF7E6FB002408E0305DFFF701
:102C100065FBFFF7DFFB070003D1641CE4B2AC42A5
:102C2000F4D3FFF7B5FB3846BDE8F0812DE9FF4747
:102C30004DA000240068274625464FF0200902AE2B
:102C40004FF010084FF4827A0390AA210020FFF77A
:102C50001BF8002870D0011F092907D2632D05D267
:102C600005EB850100EB4101C91E8DB2042816D089
:102C7000052816D0062816D0072816D0082816D002
:102C8000092816D00A2816D00B2816D00C2818D0E0
:102C90000D2818D00E2825D00F282DD04CE031203B
:102CA0000CE032200AE0332008E0342006E0352032
:102CB00004E0362002E0372000E038203055641C64
:102CC0003AE03920FAE70A20B5FBF0F506F804905F
:102CD000641E002C00DC0024214624A0FDF7AAFB82
:102CE000002729E0632D27D205EB85004FF6FF7101
:102CF00001EA40053020E1E7002003A9325C0B5CCB
:102D00009A4201D17F1CFFB2401CC0B20328F5D308
:102D1000032F0CD016A0FDF78DFB8DF808908DF8D1
:102D200009908DF80A90002004B0BDE8F08713A048
:102D3000FDF780FB0120F7E73CB1012C07D0022C06
:102D40000FD0032C81D110A102E010A100E010A14E
:102D5000CDE9008110235246B121612003F0B9FB77
:102D600073E70CA1F4E70000313233002564000062
:102D7000C3DCC2EBB4EDCEF300000000C3DCC2EB59
:102D8000D5FDC8B7000000002A2A2A002020200014
:102D90002A2020002A2A2000F0B5002201274FF027
:102DA000030C0B6807FA02F52B40AB422CD10668E6
:102DB00053000CFA03F4A64306600E79D0F800E045
:102DC0009E4046EA0E0606600E79012E01D0022EC4
:102DD00012D18668A64386604E79D0F808E09E40FE
:102DE00046EA0E0686604668AE43466045688E79C0
:102DF0009640B6B235434560C568A543C560CC79F9
:102E00009C40C3681C43C460521C102AC9D3F0BD47
:102E10004B07DB0E9A40C90810B500EB8100016A30
:102E20000F249C40A1430162016A1143016210BD5D
:102E30000246002012690A4200D0012070474183F7
:102E400070470183704700002DE9FF4101210620F2
:102E500004F030F900248DF804408DF8064003207A
:102E60008DF80500DFF8C8800226012500968DF850
:102E7000075069464046FFF78FFF680300908DF8C2
:102E8000045069462B48FFF787FFFFF7A9F92A4F3F
:102E9000C7F8B4420A2007F52D7705F023FE3D6000
:102EA0000A2005F01FFE8DF8045000968DF80740AB
:102EB00069464046FFF770FF642005F013FE0422C8
:102EC00002A948F2401000F04DF88DF80C4002A91C
:102ED0001AA0FDF7AFFA1CA102A8FDF7CBFC18B1B0
:102EE000012004B0BDE8F08148F240058DF808608B
:102EF000012202A9284600F049F9012202A9E81D91
:102F000000F030F89DF80810602905D210A0FDF7F8
:102F100091FA012000F014F90A2005F0E3FD8DF884
:102F20000840012202A9284600F030F90020D8E725
:102F30000004024000080240000041424354502077
:102F400049443A25730D0A00393134370000000036
:102F500044656661756C74205665723A25640D0A85
:102F6000000000002DE9F04115460F460446FFF72A
:102F7000E9F92820FFF7B2F9FFF72CFA200AFFF74A
:102F8000ADF9FFF727FAE0B2FFF7A8F9FFF722FA49
:102F9000FFF7D8F92920FFF7A1F9FFF71BFA002462
:102FA0006E1E09E0B44201D0012000E00020FFF7CE
:102FB0005DF93855641CE4B2AC42F3D3BDE8F0418E
:102FC000FFF7E6B92DE9F147594D00244FF00A0A01
:102FD000287883B0401CC0B2B0FBFAF20AFB1201A1
:102FE000544EA046287009B10A2877D248F24E19EB
:102FF000012203A94846FFF7B5FF9DF80C004FF0EA
:10300000000701060AD500F00F00062806D28DF849
:103010000470012201A9484600F0B8F89DF80C00A0
:1030200001075BD000F00F01062957D2FF2088402E
:103030008DF80400C04396F8209040F0C00086F858
:103040002000B089B082F08AF0834FF0010896F832
:10305000201008FA04F0014225D0374804226946BE
:1030600030F81400FFF77EFF96F830009DF801104D
:10307000C0079DF8000000EB012106EB44000AD0D8
:10308000C1829DF802109DF8032001EB0221C1F5D9
:103090004871818107E081819DF802109DF803202D
:1030A00001EB0221C182641CE4B2052CCFD3234979
:1030B000B2894FF001080B8830469A4203D8C28A81
:1030C00049888A4209D99DF80C1001F00F010129A5
:1030D0000BD9C1898181018BF1822F709DF80C0081
:1030E00000F08F0080280AD018E0818A8181C18B8E
:1030F000C18280218DF80C1086F82090EEE796F8BA
:103100002000010602D520F0800005E04FF6FF7197
:10311000B181F18200F0E00086F820002878F028E4
:1031200001D985F800A004B04046BDE8F087000052
:10313000250100202C01002012D900086401002084
:1031400008B500218DF800108DF801000E489DF89B
:103150000020435C491C1A44C9B28DF80020B829EC
:10316000F5D3D0B2C043401C8DF80000B822064908
:1031700048F2470000F00AF80222694648F2FF00D0
:1031800000F004F8002008BD5AD800082DE9F041ED
:1031900015460E4604460027FFF7D4F82820FFF70F
:1031A0009DF8FFF717F9200AFFF798F8FFF712F9D3
:1031B000E0B2FFF793F8FFF70DF9002408E0305D67
:1031C000FFF78CF8FFF706F9070003D1641CE4B29F
:1031D000AC42F4D3FFF7DCF83846BDE8F081FEE7F7
:1031E00070B50D4C0025C4F8A0520C48016821F4BC
:1031F00040210160016841F480210160C4F8A452BB
:10320000022004F5287405F089FC012020600220CA
:1032100005F084FC256070BD00804042000402403F
:103220001CB50121022003F045FF4FF4407001243A
:1032300000908DF8044000208DF8060003208DF8E2
:1032400005008DF8074069460448FFF7A5FD0448CE
:10325000C0F8A042C0F8A4421CBD00000004024017
:103260000080404270B50D4C0026C4F8A0620C48A6
:10327000016821F440210160016841F4802101606E
:103280000125C4F8A452022004F5287405F046FC78
:103290002560022005F042FC266070BD008040429F
:1032A000000402402DE9F0478146164800240168D9
:1032B00021F44021016001680160134E2546274634
:1032C0004FF00108C6F8A072022005F027FCC6F8EE
:1032D000A0826006040ED6F8240208B1641CE4B291
:1032E000012005F01BFC6D1CEDB2082DEAD3B9F1ED
:1032F000000F04D0FFF774FF2046BDE8F087FFF70A
:10330000B1FFF9E700040240008040422DE9F0419E
:1033100005461448016821F440210160016841F428
:1033200080210160104E0027C6F8A0723C464FF085
:103330000108E809C6F8A4026806050E022005F097
:10334000EDFBC6F8A082022005F0E8FBC6F8A072EB
:10335000022005F0E3FB641CE4B2082CE9D3BDE8CD
:10336000F0810000000402400080404270B50D482A
:10337000016821F440210160016841F4802101606D
:10338000094C0120C4F8A402C4F8A002042004F5EA
:10339000287405F0C3FB00256560042005F0BEFB22
:1033A000256070BD00040240008040420E4810B508
:1033B000016821F440210160016841F4802101602D
:1033C0000A4C0020C4F8A002C4F8A402042004F5AA
:1033D000287405F0A3FB012020606060BDE8104068
:1033E000042005F09BBB0000000402400080404226
:1033F00070B512480024016821F440210160016881
:1034000001600F4D0126C5F8A462304605F086FB29
:10341000C5F8A062012005F081FB07E0641CE4B25E
:10342000FA2C03D9FFF7C2FF012070BDD5F82402A2
:103430000028F3D1C5F8A00270BD000000040240CE
:10344000008040427CB50446EF208DF8000001204A
:103450008DF801001448154E4068010E8DF80210D9
:10346000010C8DF80310010A8DF804108DF8050089
:1034700007208DF8060000258DF8075035800CE0F8
:10348000012005F02FFB3088000406D53580694601
:103490000748FDF74FF9002804D1641E2404240CCA
:1034A000EED100207CBD00008C00002088000020B0
:1034B000080300201CB50121112003F0FBFD1C2096
:1034C000009000208DF8040003208DF805000124F1
:1034D0008DF8074069460648FFF75EFC02208DF82C
:1034E0000700009469460348FFF756FC1CBD000026
:1034F00000100240000002402DE9F0412E4C2F4FF9
:103500002F4D012608B1267001E02078A0B11021CE
:103510002846FFF78DFCB0B108212846FFF788FC4C
:1035200088B104212846FFF783FC60B101213846A9
:10353000FFF77EFC012806D010212846FFF778FC13
:10354000012824D035E00A2005F0CCFA00202070B4
:1035500010212846FFF76CFC80B108212846FFF7B0
:1035600067FC70B104212846FFF762FC58B10121C5
:103570003846FFF75DFC012807D01AE00120BDE8BE
:10358000F0810220FBE70320F9E70420F7E7082198
:103590002846FFF74DFC01280BD104212846FFF7F0
:1035A00047FC012805D101213846FFF741FC00B94D
:1035B00026700020E3E700007C00002000000240AD
:1035C0000010024070B50A490646002408884D885C
:1035D00021464543204602F063FE02F0BDFF4FF056
:1035E000D84002E0A0F88060641CAC42FAD370BD01
:1035F000640100202DE9F04F2B4B2C2719469871C0
:103600002B2589884FF4305A4FF4285B4FF44874C7
:1036100041F6631E2A264FF0F00845F210594FF488
:10362000A07C4FF4F072C8B1A3F800C0A3F80280E8
:10363000494533D1A3F808A0A3F80AB0280298811D
:103640001C805A80A1F5A640103802D11A80A3F838
:1036500002C0BDE8F04F002002F052BDA3F8008088
:10366000A3F802C0494507D1A3F808A0A3F80AB0FF
:103670004FF42C50988104E071451F8104D15D8185
:103680009E811A805C8001E05E819D81A1F5A6404B
:103690001038DED1A3F800C05A80DAE71F815E81BE
:1036A00071459D81CCD0CDE7640100202DE9FE4F0E
:1036B0000026A2EB000882465F1A701E3546894636
:1036C000B8F1000F02DD4FF0010102E003D14FF02D
:1036D0000001019102E0C8F100080190002F02DD15
:1036E0004FF0010002E003D14FF00000009002E033
:1036F000C7F1000700904046B84501DD044600E0F0
:103700003C46601C4FF0000B029015E01FFA89F157
:103710001FFA8AF000F016F846443D44A64202DD46
:103720000199361B8A44A54202DD00992D1B89446C
:103730000BF101001FFA80FB02998B45E6DDBDE825
:10374000FE8F000000B502F0ABFD02F005FF03485C
:103750004FF0D8414088A1F8800000BD70000020E3
:10376000F0B51C4615460E4607460B46FFF79EFF72
:103770003A46234631461046FFF798FF23462A462D
:1037800019463846FFF792FF2A4623463146BDE8E0
:10379000F0401046FFF78ABF2DE9FC4F8046002419
:1037A000154603200F46A0EB450649E0781B81B281
:1037B00008EB040A01901FFA8AF0FFF7C3FF381BD9
:1037C00081B208EB050900901FFA89F0FFF7BAFFF4
:1037D00007EB040B1FFA8BF11FFA89F0FFF7B2FF1A
:1037E00007EB05091FFA89F11FFA8AF0FFF7AAFF14
:1037F000A8EB040A1FFA89F11FFA8AF0FFF7A2FF6B
:10380000A8EB05091FFA8BF11FFA89F0FFF79AFF61
:10381000019881B21FFA8AF0FFF794FF009881B2F5
:103820001FFA89F0FFF78EFF641C002E03DA06EB07
:103830008406B61D04E0601B06EB80066D1E0A368A
:10384000AC42B3DDBDE8FC8F2DE9F041314D90462F
:103850000C460246060AA9882846270A4089A1F58F
:10386000AA43103B0FD0A1F5C853633B24D002F00C
:1038700066FE304602F057FED0B202F054FEA88930
:1038800002F05DFE36E002F05AFE304602F04BFEDA
:103890006889401C80B202F052FED0B202F043FEB2
:1038A000A88902F04CFE384602F03DFEA889401C73
:1038B00080B202F044FE20E0A97919B92988891A5A
:1038C000491E8AB202F03BFE160A304602F02BFE79
:1038D000D0B202F028FE304602F025FED0B202F04F
:1038E00022FEA88902F02BFE384602F01CFEE0B250
:1038F00002F019FE384602F016FEE0B202F013FEA6
:103900004FF0D840298920F87E1FA0F80280BDE83A
:10391000F0810000640100202DE9F0438146A2EB14
:103920000900401C1F460C4685B24FF0D848079E40
:1039300010E02146484602F0B3FC02F00DFE0020E4
:10394000414603E0A1F88060401C80B2A842F9D350
:10395000641CA4B2BC42ECD9BDE8F0832DE9F04F61
:10396000A1B0002401217A201F9403F0A3FB0121C0
:10397000084603F0ABFB01258DF804504FF40040DE
:103980008DF80640022600908DF805608DF80750EE
:103990006946FE48FFF700FA8DF804604CF2337078
:1039A0008DF806400327DFF8E88300908DF8057056
:1039B0008DF8075069464046FFF7EEF98DF8046030
:1039C0004FF680708DF80640DFF8C89300908DF8B0
:1039D00005708DF8075069464846FFF7DDF98DF808
:1039E000046028038DF8064000908DF805708DF86E
:1039F00007506946E848FFF7CFF98DF804602803BF
:103A00008DF8064000908DF805708DF807506946D6
:103A1000E248FFF7C1F90C2200214046FFF7F8F910
:103A20000C2201214046FFF7F3F90C220421404605
:103A3000FFF7EEF90C2205214046FFF7E9F90C22C9
:103A400008214046FFF7E4F90C2209214046FFF720
:103A5000DFF90C220A214046FFF7DAF90C220E2189
:103A60004046FFF7D5F90C220F214046FFF7D0F969
:103A70000C2207214846FFF7CBF90C2208214846C3
:103A8000FFF7C6F90C2209214846FFF7C1F90C22BD
:103A90000A214846FFF7BCF90C220B214846FFF7E4
:103AA000B7F90C2211464846FFF7B2F90C220D2156
:103AB0004846FFF7ADF90C220E214846FFF7A8F95A
:103AC0000C220F214846FFF7A3F90C221146B248F9
:103AD000FFF79EF90C221146B048FFF799F90F2025
:103AE000CDE911043C20CDE9130415940920169466
:103AF000CDE917400820CDE919401B941C940620FD
:103B0000CDE902041D941E941020CDE904400694D2
:103B10000002CDE90A40089407948000CDE90C40EA
:103B2000099411A8CDE90E4018A8109002A8FEF73C
:103B3000C5FE01210620FEF7B1FE322004F0D2FFBF
:103B4000D32002F0FCFC02F0A9FA954CA08002F010
:103B5000A5FA2146888002F0A1FA4FF6FF7101EA2A
:103B600000202146888002F099FA214645F210375C
:103B7000898845F210560843214641F6631888802B
:103B8000A0F5134147F289754FF4704A4FF2010BCB
:103B9000413976D0042002F0D2FC02F07FFAA080F6
:103BA00002F07CFAA08002F079FA4FF6FF7202EA86
:103BB0000020A08002F072FAA1880843A0F5054118
:103BC000A08052397DD0A8425BD0D42002F0B7FC4F
:103BD00002F064FAA08002F061FAA08002F05EFABE
:103BE00002EA00209146A08002F058FAA18808431A
:103BF000A080B84245D05521504602F0B7FCAA211A
:103C0000584602F0B3FC52214FF2020002F0AEFC23
:103C100008214FF2030002F0A9FC01214FF2040039
:103C200002F0A4FC4FF4454002F089FC02F036FAA1
:103C300009EA0020A0804CF2015002F080FC02F062
:103C40002DFAA1880843A080052004F04BFFA0882E
:103C5000B0F5004F45D0B04213D0A12002F06FFC68
:103C600002F01CFAA08002F019FA09EA0020A080F4
:103C700002F014FAA1880843A0F5AE41A080613992
:103C80002CD0A088A0F51341413907D0A84205D017
:103C9000B84203D0B04201D0404528D14FF0204077
:103CA000D0F81C1121F00F01C0F81C11D0F81C1124
:103CB00021F47061C0F81C11D0F81C1141F003010F
:103CC00000E009E0C0F81C11A188A942D0F81C113D
:103CD00009D141F4407108E0A580DFE7A4F8048031
:103CE000DCE7A680DAE741F40071C0F81C11A18876
:103CF0002CA0FCF79FFBA088A0F5134141397DD093
:103D0000A8427CD1112002F01AFC782004F0EAFECF
:103D1000362002F014FC002002F005FC3A2002F0EC
:103D20000EFC052002F0FFFBB22002F008FC0C2084
:103D300002F0F9FB0C2002F0F6FB002002F0F3FB8E
:103D4000332002F0F0FB332002F0EDFBB72002F04D
:103D5000F6FB352002F0E7FBBB2002F0F0FB32203F
:103D600002F0E1FBC02002F0EAFB0C2002F0DBFBDA
:103D7000C22002F0E4FB012002F0D5FBC32002F0D8
:103D8000DEFB102002F0CFFBC42013E00004024051
:103D9000000C0240001002400014024000180240D3
:103DA00064010020204C43442049443A25780D0A00
:103DB0000000000002F0C3FB202002F0B4FBC6208C
:103DC00002F0BDFB0F2002F0AEFBD02002F0B7FBEB
:103DD000A42002F0A8FBA12002F0A5FBE02002F045
:103DE000AEFBD02002F09FFB002002F09CFB0220E3
:103DF00002F099FB072002F096FB01E06CE07DE108
:103E00000A2002F090FB282002F08DFB322002F005
:103E10008AFB442002F087FB422002F084FB06204C
:103E200002F081FB0E2002F07EFB122002F07BFBF1
:103E3000142002F078FB172002F075FBE12002F05D
:103E40007EFBD02002F06FFB002002F06CFB022012
:103E500002F069FB072002F066FB0A2002F063FB18
:103E6000282002F060FB312002F05DFB542002F0BC
:103E70005AFB472002F057FB0E2002F054FB1C2097
:103E800002F051FB172002F04EFB1B2002F04BFB0F
:103E90001E2002F048FB2A2002F051FB002002F015
:103EA00042FB002002F03FFB002002F03CFBEF2031
:103EB00002F039FB2B2002F042FB002002F033FB22
:103EC000002002F030FB012002F02DFB3F2002F029
:103ED0002AFB292002F00CB8CF2002F030FB002092
:103EE00002F021FBC12002F01EFB302002F01BFB80
:103EF000ED2002F024FB642002F015FB032002F009
:103F000012FB122002F00FFB812002F00CFBE820D4
:103F100002F015FB852002F006FB102002F003FBE7
:103F20007A2002F000FBCB2002F009FB392002F0DE
:103F3000FAFA2C2002F0F7FA002002F0F4FA34200A
:103F400002F0F1FA022002F0EEFAF72002F0F7FA9E
:103F5000202002F0E8FAEA2002F0F1FA002002F054
:103F6000E2FA002002F0DFFAC02002F0E8FA1B209B
:103F700002F0D9FAC12002F0E2FA012002F0D3FAED
:103F8000C52002F0DCFA302002F0CDFA302002F039
:103F9000CAFAC72002F0D3FAB72002F0C4FA3620DA
:103FA00002F0CDFA482002F0BEFA3A2002F0C7FA39
:103FB000552002F0B8FAB12002F0C1FA002002F058
:103FC000B2FA1A2002F0AFFAB62002F0B8FA0A20CC
:103FD00002F0A9FAA22002F0A6FAF22002F0AFFA4B
:103FE000002002F0A0FA262002F0A9FA012002F037
:103FF0009AFAE02002F0A3FA0F2002F094FA2A20A5
:1040000002F091FA282002F08EFA082002F08BFAD2
:104010000E2002F088FA082002F085FA542002F0FF
:1040200082FAA92002F07FFA432002F07CFA0A20EB
:1040300002F079FA0F2002F076FA002002F073FA0B
:10404000002002F070FA002002F06DFA002002F069
:104050006AFAE12002F073FA002002F064FA1520F7
:1040600002F061FA172002F05EFA072002F05BFA14
:10407000112002F058FA062002F055FA2B2002F027
:1040800052FA562002F04FFA3C2002F04CFA05207A
:1040900002F049FA102002F046FA0F2002F043FA2B
:1040A0003F2002F040FA3F2002F03DFA0F2002F0DC
:1040B0003AFA2B2002F043FA002002F034FA0020F2
:1040C00002F031FA012002F02EFA3F2002F02BFA22
:1040D0002A2002F034FA002002F025FA002002F033
:1040E00022FA002002F01FFAEF2002F01CFA112041
:1040F00002F025FA782004F0F5FCEAE6B8427CD11B
:10410000ED2002F01CFA012002F00DFAFE2002F070
:104110000AFAEE2002F013FADE2002F004FA21205F
:1041200002F001FAF12002F00AFA012002F0FBF994
:10413000DF2002F004FA102002F0F5F9C42002F0AA
:10414000FEF98F2002F0EFF9C62002F0F8F9002006
:1041500002F0E9F9E22002F0E6F9E22002F0E3F9E8
:10416000E22002F0E0F9BF2002F0E9F9AA2002F013
:10417000DAF9B02002F0E3F90D2002F0D4F90020C2
:1041800002F0D1F90D2002F0CEF9002002F0CBF9B7
:10419000112002F0C8F9002002F0C5F9192002F040
:1041A000C2F9002002F0BFF9212002F0BCF9002082
:1041B00002F0B9F92D2002F0B6F9002002F0B3F9AF
:1041C0003D2002F0B0F9002002F0ADF95D2002F0D0
:1041D000AAF9002002F0A7F95D2002F0A4F900205E
:1041E00002F0A1F9B12002F0AAF9802002F09BF9B7
:1041F000002002F098F98B2000E0FCE302F093F934
:10420000002002F090F9962002F08DF9002002F0D3
:104210008AF9B22002F093F9002002F084F900201C
:1042200002F081F9022002F07EF9002002F07BF911
:10423000032002F078F9002002F075F9B32002F0B3
:104240007EF9002002F06FF9002002F06CF90020E6
:1042500002F069F9002002F066F9002002F063F92B
:10426000002002F060F9002002F05DF9002002F069
:104270005AF9002002F057F9002002F054F900200A
:1042800002F051F9002002F04EF9002002F04BF943
:10429000002002F048F9002002F045F9002002F069
:1042A00042F9002002F03FF9002002F03CF9002022
:1042B00002F039F9002002F036F9002002F033F95B
:1042C000002002F030F9002002F02DF9002002F069
:1042D0002AF9B42002F033F98B2002F024F90020EF
:1042E00002F021F9962002F01EF9002002F01BF9DD
:1042F000A12002F018F9002002F015F9B52002F013
:104300001EF9022002F00FF9002002F00CF9032040
:1043100002F009F9002002F006F9042002F003F986
:10432000002002F000F9B62002F009F9002002F0A6
:10433000FAF8002002F0F7F8B72002F000F90020A8
:1043400002F0F1F8002002F0EEF83F2002F0EBF866
:10435000002002F0E8F85E2002F0E5F8002002F00C
:10436000E2F8642002F0DFF8002002F0DCF88C2094
:1043700002F0D9F8002002F0D6F8AC2002F0D3F811
:10438000002002F0D0F8DC2002F0CDF8002002F08E
:10439000CAF8702002F0C7F8002002F0C4F890209C
:1043A00002F0C1F8002002F0BEF8EB2002F0BBF8EA
:1043B000002002F0B8F8DC2002F0B5F8002002F08E
:1043C000B2F8B82002F0BBF8002002F0ACF80020F0
:1043D00002F0A9F8002002F0A6F8002002F0A3F8ED
:1043E000002002F0A0F8002002F09DF8002002F06A
:1043F0009AF8002002F097F8BA2002F0A0F82420E2
:1044000002F091F8002002F08EF8002002F08BF804
:10441000002002F088F8C12002F091F8202002F07C
:1044200082F8002002F07FF8542002F07CF800208F
:1044300002F079F8FF2002F076F8002002F073F81D
:10444000C22002F07CF80A2002F06DF8002002F091
:104450006AF8042002F067F8002002F064F8C32034
:1044600002F06DF83C2002F05EF8002002F05BF8EC
:104470003A2002F058F8002002F055F8392002F0F6
:1044800052F8002002F04FF8372002F04CF80020DC
:1044900002F049F83C2002F046F8002002F043F810
:1044A000362002F040F8002002F03DF8322002F001
:1044B0003AF8002002F037F82F2002F034F80020FC
:1044C00002F031F82C2002F02EF8002002F02BF838
:1044D000292002F028F8002002F025F8262002F01A
:1044E00022F8002002F01FF8242002F01CF800201F
:1044F00002F019F8242002F016F8002002F013F858
:10450000232002F010F8002002F00DF83C2002F009
:104510000AF8002002F007F8362002F004F8002024
:1045200002F001F8322001F0FEFF002001F0FBFF55
:104530002F2001F0F8FF002001F0F5FF2C2001F002
:10454000F2FF002001F0EFFF292001F0ECFF002036
:1045500001F0E9FF262001F0E6FF002001F0E3FF73
:10456000242001F0E0FF002001F0DDFF242001F015
:10457000DAFF002001F0D7FF232001F0D4FF002054
:1045800001F0D1FFC42001F0DAFF622001F0CBFF7F
:10459000002001F0C8FF052001F0C5FF002001F058
:1045A000C2FF842001F0BFFF002001F0BCFFF0201B
:1045B00001F0B9FF002001F0B6FF182001F0B3FFB1
:1045C000002001F0B0FFA42001F0ADFF002001F0B9
:1045D000AAFF182001F0A7FF002001F0A4FF50203F
:1045E00001F0A1FF002001F09EFF0C2001F09BFFD5
:1045F000002001F098FF172001F095FF002001F046
:1046000092FF952001F08FFF002001F08CFFF32036
:1046100001F089FF002001F086FFE62001F083FF12
:10462000002001F080FFC52001F089FF322001F059
:104630007AFF002001F077FF442001F074FF002092
:1046400001F071FF652001F06EFF002001F06BFFAB
:10465000762001F068FF002001F065FF882001F05E
:1046600062FF002001F05FFFC62001F068FF2020FC
:1046700001F059FF002001F056FF172001F053FF11
:10468000002001F050FF012001F04DFF002001F05B
:104690004AFFC72001F053FF002001F044FF002033
:1046A00001F041FF002001F03EFF002001F03BFF40
:1046B000C82001F044FF002001F035FF002001F088
:1046C00032FF002001F02FFF002001F02CFFC92055
:1046D00001F035FF002001F026FF002001F023FF4C
:1046E000002001F020FF002001F01DFF002001F05C
:1046F0001AFF002001F017FF002001F014FF002036
:1047000001F011FF002001F00EFF002001F00BFF6F
:10471000002001F008FF002001F005FF002001F05B
:1047200002FF002001F0FFFE002001F0FCFE00204F
:1047300001F0F9FEE02001F002FF162001F0F3FE87
:10474000002001F0F0FE1C2001F0EDFE002001F041
:10475000EAFE212001F0E7FE002001F0E4FE362011
:1047600001F0E1FE002001F0DEFE462001F0DBFE5C
:10477000002001F0D8FE522001F0D5FE002001F00B
:10478000D2FE642001F0CFFE002001F0CCFE7A20A2
:1047900001F0C9FE002001F0C6FE8B2001F0C3FE2F
:1047A000002001F0C0FE992001F0BDFE002001F0C4
:1047B000BAFEA82001F0B7FE002001F0B4FEB92037
:1047C00001F0B1FE002001F0AEFEC42001F0ABFE0E
:1047D000002001F0A8FECA2001F0A5FE002001F093
:1047E000A2FED22001F09FFE002001F09CFED92005
:1047F00001F099FE002001F096FEE02001F093FE0A
:10480000002001F090FEF32001F08DFE002001F069
:104810008AFEE12001F093FE162001F084FE0020C4
:1048200001F081FE1C2001F07EFE002001F07BFEE5
:10483000222001F078FE002001F075FE362001F004
:1048400072FE002001F06FFE452001F06CFE00209A
:1048500001F069FE522001F066FE002001F063FEC7
:10486000642001F060FE002001F05DFE7A2001F07E
:104870005AFE002001F057FE8B2001F054FE00206C
:1048800001F051FE992001F04EFE002001F04BFE98
:10489000A82001F048FE002001F045FEB92001F0FB
:1048A00042FE002001F03FFEC42001F03CFE00204B
:1048B00001F039FECA2001F036FE002001F033FE7F
:1048C000D22001F030FE002001F02DFED82001F0B2
:1048D0002AFE002001F027FEE02001F024FE002047
:1048E00001F021FEF32001F01EFE002001F01BFE6E
:1048F000E22001F024FE052001F015FE002001F069
:1049000012FE0B2001F00FFE002001F00CFE1B2018
:1049100001F009FE002001F006FE342001F003FE44
:10492000002001F000FE442001F0FDFD002001F018
:10493000FAFD4F2001F0F7FD002001F0F4FD6120A9
:1049400001F0F1FD002001F0EEFD792001F0EBFD1A
:10495000002001F0E8FD882001F0E5FD002001F0D5
:10496000E2FD972001F0DFFD002001F0DCFDA62034
:1049700001F0D9FD002001F0D6FDB72001F0D3FDF4
:10498000002001F0D0FDC22001F0CDFD002001F09B
:10499000CAFDC72001F0C7FD002001F0C4FDD120F1
:1049A00001F0C1FD002001F0BEFDD62001F0BBFDED
:1049B000002001F0B8FDDD2001F0B5FD002001F080
:1049C000B2FDF32001F0AFFD002001F0ACFDE320CB
:1049D00001F0B5FD052001F0A6FD002001F0A3FDCA
:1049E0000A2001F0A0FD002001F09DFD1C2001F037
:1049F0009AFD002000E0FDE201F095FD332001F07A
:104A000092FD002001F08FFD442001F08CFD00207C
:104A100001F089FD502001F086FD002001F083FDAA
:104A2000622001F080FD002001F07DFD782001F082
:104A30007AFD002001F077FD882001F074FD002050
:104A400001F071FD972001F06EFD002001F06BFD7B
:104A5000A62001F068FD002001F065FDB72001F0FF
:104A600062FD002001F05FFDC22001F05CFD00202E
:104A700001F059FDC72001F056FD002001F053FD63
:104A8000D12001F050FD002001F04DFDD52001F0B6
:104A90004AFD002001F047FDDD2001F044FD00202B
:104AA00001F041FDF32001F03EFD002001F03BFD4F
:104AB000E42001F044FD012001F035FD002001F06B
:104AC00032FD012001F02FFD002001F02CFD02201D
:104AD00001F029FD002001F026FD2A2001F023FD30
:104AE000002001F020FD3C2001F01DFD002001F020
:104AF0001AFD4B2001F017FD002001F014FD5D2090
:104B000001F011FD002001F00EFD742001F00BFDFD
:104B1000002001F008FD842001F005FD002001F0D7
:104B200002FD932001F0FFFC002001F0FCFCA2201C
:104B300001F0F9FC002001F0F6FCB32001F0F3FCD9
:104B4000002001F0F0FCBE2001F0EDFC002001F09F
:104B5000EAFCC42001F0E7FC002001F0E4FCCD20D9
:104B600001F0E1FC002001F0DEFCD32001F0DBFCD1
:104B7000002001F0D8FCDD2001F0D5FC002001F080
:104B8000D2FCF32001F0CFFC002001F0CCFCE520AA
:104B900001F0D5FC002001F0C6FC002001F0C3FCB0
:104BA000002001F0C0FC002001F0BDFC022001F05B
:104BB000BAFC002001F0B7FC292001F0B4FC002071
:104BC00001F0B1FC3C2001F0AEFC002001F0ABFC98
:104BD0004B2001F0A8FC002001F0A5FC5D2001F0B5
:104BE000A2FC002001F09FFC742001F09CFC00203E
:104BF00001F099FC842001F096FC002001F093FC68
:104C0000932001F090FC002001F08DFCA22001F027
:104C10008AFC002001F087FCB32001F084FC002016
:104C200001F081FCBE2001F07EFC002001F07BFC45
:104C3000C42001F078FC002001F075FCCD2001F0CB
:104C400072FC002001F06FFCD32001F06CFC00200E
:104C500001F069FCDC2001F066FC002001F063FC3F
:104C6000F32001F060FC002001F05DFCE62001F083
:104C700066FC112001F057FC002001F054FC3420A8
:104C800001F051FC002001F04EFC562001F04BFCDD
:104C9000002001F048FC762001F045FC002001F0E6
:104CA00042FC772001F03FFC002001F03CFC662034
:104CB00001F039FC002001F036FC882001F033FCC3
:104CC000002001F030FC992001F02DFC002001F0C3
:104CD0002AFCBB2001F027FC002001F024FC9920D5
:104CE00001F021FC002001F01EFC662001F01BFCFD
:104CF000002001F018FC552001F015FC002001F007
:104D000012FC552001F00FFC002001F00CFC4520A6
:104D100001F009FC002001F006FC432001F003FC37
:104D2000002001F000FC442001F0FDFB002001F018
:104D3000FAFBE72001F003FC322001F0F4FB002035
:104D400001F0F1FB552001F0EEFB002001F0EBFB40
:104D5000762001F0E8FB002001F0E5FB662001F081
:104D6000E2FB002001F0DFFB672001F0DCFB00200C
:104D700001F0D9FB672001F0D6FB002001F0D3FB46
:104D8000872001F0D0FB002001F0CDFB992001F03D
:104D9000CAFB002001F0C7FBBB2001F0C4FB0020D0
:104DA00001F0C1FB992001F0BEFB002001F0BBFB2C
:104DB000772001F0B8FB002001F0B5FB442001F0A2
:104DC000B2FB002001F0AFFB562001F0ACFB00204D
:104DD00001F0A9FB232001F0A6FB002001F0A3FBBA
:104DE000332001F0A0FB002001F09DFB452001F0E5
:104DF0009AFB002001F097FBE82001F0A0FB0020C7
:104E000001F091FB002001F08EFB992001F08BFB5B
:104E1000002001F088FB872001F085FB002001F0D5
:104E200082FB882001F07FFB002001F07CFB7720D3
:104E300001F079FB002001F076FB662001F073FBA6
:104E4000002001F070FB882001F06DFB002001F0D4
:104E50006AFBAA2001F067FB002001F064FBBB2085
:104E600001F061FB002001F05EFB992001F05BFB8B
:104E7000002001F058FB662001F055FB002001F0F6
:104E800052FB552001F04FFB002001F04CFB552058
:104E900001F049FB002001F046FB442001F043FBF8
:104EA000002001F040FB442001F03DFB002001F018
:104EB0003AFB552001F037FB002001F034FBE920DC
:104EC00001F03DFBAA2001F02EFB002001F02BFB9E
:104ED000002001F028FB002001F025FB002001F05C
:104EE0002EFBAA2001F01FFBCF2001F028FB0020A1
:104EF00001F019FB002001F016FB002001F013FB6C
:104F0000002001F010FB002001F00DFB002001F05B
:104F10000AFB002001F007FB002001F004FB002049
:104F200001F001FB002001F0FEFA002001F0FBFA85
:104F3000002001F0F8FA002001F0F5FA002001F05D
:104F4000F2FA002001F0EFFA002001F0ECFA002064
:104F500001F0E9FAF02001F0F2FA002001F0E3FAA2
:104F6000502001F0E0FA002001F0DDFA002001F00D
:104F7000DAFA002001F0D7FAF32001F0E0FA00207D
:104F800001F0D1FAF92001F0DAFA062001F0CBFAAB
:104F9000102001F0C8FA292001F0C5FA002001F024
:104FA000C2FA3A2001F0CBFA552001F0BCFA1120E8
:104FB00001F0C5FA642003F095FD292001F0BFFA45
:104FC000352001F0BCFA002001F0ADFA512001F0CB
:104FD000B6FAFF2001F0A7FA532001F0B0FA2C2016
:104FE00001F0A1FA552001F0AAFA822001F09BFA03
:104FF0002C20FCE3B0427DD155215346504601F0B0
:10500000B5FAAA215C46584601F0B0FA4FF2020503
:105010005221284601F0AAFA6E1C0821304601F000
:10502000A5FAAF1C0121384601F0A0FA0D214FF47A
:10503000304001F09BFA0D214BF2010001F096FA8D
:105040000D214BF2020001F091FA4FF43648342161
:10505000404601F08BFA34214BF2016001F086FAF0
:1050600034214BF2026001F081FA4FF431490D21F5
:10507000484601F07BFA4BF2011A0D21504601F02F
:1050800075FA0D214BF2021001F070FA4FF4374B14
:105090003421584601F06AFA34214BF2017001F0D4
:1050A00065FA34214BF2027001F060FA00214FF4EE
:1050B000324001F05BFA00214BF2012001F056FA78
:1050C00000214BF2022001F051FA24214FF4384024
:1050D00001F04CFA24214BF6010001F047FA24219B
:1050E0004BF6020001F042FA01214FF43F4001F07B
:1050F0003DFA00E0FEE30F214FF4334001F036FAB1
:105100000F214BF2013001F031FA0F214BF2023046
:1051100001F02CFA34214FF4394001F027FA342100
:105120004BF6011001F022FA34214BF6021001F087
:105130001DFA08214FF4354001F018FA08214BF20E
:10514000015001F013FA08214BF2025001F00EFA5F
:1051500003214FF4424001F009FA24214FF43A4070
:1051600001F004FA24214BF6012001F0FFF924217B
:105170004BF6022001F0FAF900214FF43C4001F017
:10518000F5F978214BF6014001F0F0F900214BF6DA
:10519000024001F0EBF900214FF43D4001F0E6F947
:1051A00078214BF6015001F0E1F900214BF6025055
:1051B00001F0DCF900214FF43E4001F0D7F9642101
:1051C0004BF6016001F0D2F900214FF4514001F09B
:1051D000CDF933214DF2011001F0C8F900214DF253
:1051E000021001F0C3F934214DF2031001F0BEF9B1
:1051F00000214DF2041001F0B9F93A214DF20510E9
:1052000001F0B4F900214DF2061001F0AFF94A2186
:105210004DF2071001F0AAF900214DF2081001F03B
:10522000A5F95C214DF2091001F0A0F900214DF221
:105230000A1001F09BF981214DF20B1001F096F953
:1052400000214DF20C1001F091F9A6214DF20D1044
:1052500001F08CF900214DF20E1001F087F9E521E3
:105260004DF20F1001F082F901214DF2101001F002
:105270007DF913214DF2111001F078F901214DF261
:10528000121001F073F954214DF2131001F06EF970
:1052900001214DF2141001F069F982214DF215102F
:1052A00001F064F901214DF2161001F05FF9CA21F5
:1052B0004DF2171001F05AF902214DF2181001F0C9
:1052C00055F900214DF2191001F050F902214DF26B
:1052D0001A1001F04BF901214DF21B1001F046F9B3
:1052E00002214DF21C1001F041F934214DF21D1044
:1052F00001F03CF902214DF21E1001F037F967214F
:105300004DF21F1001F032F902214DF2201001F090
:105310002DF984214DF2211001F028F902214DF2DE
:10532000221001F023F9A4214DF2231001F01EF9FF
:1053300002214DF2241001F019F9B7214DF2251088
:1053400001F014F902214DF2261001F00FF9CF21DE
:105350004DF2271001F00AF902214DF2281001F058
:1053600005F9DE214DF2291001F000F902214DF27C
:105370002A1001F0FBF8F2214DF22B1001F0F6F8A3
:1053800002214DF22C1001F0F1F8FE214DF22D100A
:1053900001F0ECF803214DF22E1001F0E7F8102196
:1053A0004DF22F1001F0E2F803214DF2301001F020
:1053B000DDF833214DF2311001F0D8F803214DF220
:1053C000321001F0D3F86D214DF2331001F0CEF818
:1053D00000214FF4524001F0C9F833214DF2012071
:1053E00001F0C4F800214DF2022001F0BFF8342191
:1053F0004DF2032001F0BAF800214DF2042001F033
:10540000B5F83A214DF2052001F0B0F800214DF237
:10541000062001F0ABF84A214DF2072001F0A6F872
:1054200000214DF2082001F0A1F85C214DF2092085
:1054300001F09CF800214DF20A2001F097F881213B
:105440004DF20B2001F092F800214DF20C2001F0FA
:105450008DF8A6214DF20D2001F088F800214DF2C3
:105460000E2001F083F8E5214DF20F2001F07EF8C7
:1054700001214DF2102001F079F813214DF2112095
:1054800001F074F801214DF2122001F06FF854215F
:105490004DF2132001F06AF801214DF2142001F0C1
:1054A00065F882214DF2152001F060F801214DF2DE
:1054B000162001F05BF8CA214DF2172001F056F8D2
:1054C00002214DF2182001F051F800214DF219206F
:1054D00001F04CF802214DF21A2001F047F80121A9
:1054E0004DF21B2001F042F802214DF21C2001F088
:1054F0003DF834214DF21D2001F038F802214DF223
:105500001E2001F033F867214DF21F2001F02EF824
:1055100002214DF2202001F029F884214DF22120B2
:1055200001F024F802214DF2222001F01FF8A421FD
:105530004DF2232001F01AF802214DF2242001F04F
:1055400015F8B7214DF2252001F010F802214DF297
:10555000262001F00BF8CF214DF2272001F006F8AC
:1055600002214DF2282001F001F8DE214DF2292020
:1055700000F0FCFF02214DF22A2000F0F7FFF2219B
:105580004DF22B2000F0F2FF02214DF22C2000F012
:10559000EDFFFE214DF22D2000F0E8FF03214DF23A
:1055A0002E2000F0E3FF10214DF22F2000F0DEFF4F
:1055B00003214DF2302000F0D9FF33214DF231208C
:1055C00000F0D4FF03214DF2322000F0CFFF6D2117
:1055D0004DF2332000F0CAFF00214FF4534000F099
:1055E000C5FF33214DF2013000F0C0FF00214DF224
:1055F000023000F0BBFF34214DF2033000F0B6FF63
:1056000000214DF2043000F0B1FF3A214DF2053097
:1056100000F0ACFF00214DF2063000F0A7FF4A2158
:105620004DF2073000F0A2FF00214DF2083000F0EB
:105630009DFF5C214DF2093000F098FF00214DF2F2
:105640000A3000F093FF81214DF20B3000F08EFF05
:1056500000214DF20C3000F089FFA6214DF20D30F3
:1056600000F084FF00214DF20E3000F07FFFE521B5
:105670004DF20F3000F07AFF01214DF2103000F0B2
:1056800075FF13214DF2113000F070FF01214DF232
:10569000123000F06BFF54214DF2133000F066FF22
:1056A00001214DF2143000F061FF82214DF21530DE
:1056B00000F05CFF01214DF2163000F057FFCA21C7
:1056C0004DF2173000F052FF02214DF2183000F079
:1056D0004DFF00214DF2193000F048FF02214DF23C
:1056E0001A3000F043FF01214DF21B3000F03EFF65
:1056F00002214DF21C3000F039FF34214DF21D30F3
:1057000000F034FF02214DF21E3000F02FFF672120
:105710004DF21F3000F02AFF02214DF2203000F040
:1057200025FF84214DF2213000F020FF02214DF2AF
:10573000223000F01BFFA4214DF2233000F016FFB1
:1057400002214DF2243000F011FFB7214DF2253037
:1057500000F00CFF02214DF2263000F007FFCF21B0
:105760004DF2273000F002FF02214DF2283000F008
:10577000FDFEDE214DF2293000F0F8FE02214DF24F
:105780002A3000F0F3FEF2214DF22B3000F0EEFE55
:1057900002214DF22C3000F0E9FEFE214DF22D30B9
:1057A00000F0E4FE03214DF22E3000F0DFFE102168
:1057B0004DF22F3000F0DAFE03214DF2303000F0D0
:1057C000D5FE33214DF2313000F0D0FE03214DF2F1
:1057D000323000F0CBFE6D214DF2333000F0C6FECA
:1057E00000214FF4544000F0C1FE332100E07FE37C
:1057F0004DF2014000F0BAFE00214DF2024000F0EF
:10580000B5FE34214DF2034000F0B0FE00214DF210
:10581000044000F0ABFE3A214DF2054000F0A6FE38
:1058200000214DF2064000F0A1FE4A214DF2074052
:1058300000F09CFE00214DF2084000F097FE5C2134
:105840004DF2094000F092FE00214DF20A4000F0B6
:105850008DFE81214DF20B4000F088FE00214DF2BB
:105860000C4000F083FEA6214DF20D4000F07EFEBC
:1058700000214DF20E4000F079FEE5214DF20F407F
:1058800000F074FE01214DF2104000F06FFE132174
:105890004DF2114000F06AFE01214DF2124000F07D
:1058A00065FE54214DF2134000F060FE01214DF2DF
:1058B000144000F05BFE82214DF2154000F056FED0
:1058C00001214DF2164000F051FECA214DF2174061
:1058D00000F04CFE02214DF2184000F047FE00217E
:1058E0004DF2194000F042FE02214DF21A4000F044
:1058F0003DFE00E0FFE201214DF21B4000F036FECC
:1059000002214DF21C4000F031FE34214DF21D40C9
:1059100000F02CFE02214DF21E4000F027FE672110
:105920004DF21F4000F022FE02214DF2204000F017
:105930001DFE84214DF2214000F018FE02214DF29F
:10594000224000F013FEA4214DF2234000F00EFE91
:1059500002214DF2244000F009FEB7214DF225400E
:1059600000F004FE02214DF2264000F0FFFDCF21A1
:105970004DF2274000F0FAFD02214DF2284000F0E0
:10598000F5FDDE214DF2294000F0F0FD02214DF23F
:105990002A4000F0EBFDF2214DF22B4000F0E6FD35
:1059A00002214DF22C4000F0E1FDFE214DF22D4090
:1059B00000F0DCFD03214DF22E4000F0D7FD102158
:1059C0004DF22F4000F0D2FD03214DF2304000F0A7
:1059D000CDFD33214DF2314000F0C8FD03214DF2E1
:1059E000324000F0C3FD6D214DF2334000F0BEFDAA
:1059F00000214FF4554000F0B9FD33214DF2015024
:105A000000F0B4FD00214DF2025000F0AFFD342152
:105A10004DF2035000F0AAFD00214DF2045000F0B9
:105A2000A5FD3A214DF2055000F0A0FD00214DF2F8
:105A3000065000F09BFD4A214DF2075000F096FD04
:105A400000214DF2085000F091FD5C214DF209500B
:105A500000F08CFD00214DF20A5000F087FD8121FD
:105A60004DF20B5000F082FD00214DF20C5000F081
:105A70007DFDA6214DF20D5000F078FD00214DF284
:105A80000E5000F073FDE5214DF20F5000F06EFD59
:105A900001214DF2105000F069FD13214DF211501B
:105AA00000F064FD01214DF2125000F05FFD542121
:105AB0004DF2135000F05AFD01214DF2145000F048
:105AC00055FD82214DF2155000F050FD01214DF29F
:105AD000165000F04BFDCA214DF2175000F046FD64
